{
  "_format": "hh-sol-artifact-1",
  "contractName": "Lock",
  "sourceName": "contracts/Lock.sol",
  "abi": [
    {
      "inputs": [
        {
          "internalType": "uint256",
          "name": "w",
          "type": "uint256"
        },
        {
          "internalType": "uint256",
          "name": "x",
          "type": "uint256"
        },
        {
          "internalType": "uint256",
          "name": "y",
          "type": "uint256"
        },
        {
          "internalType": "uint256",
          "name": "z",
          "type": "uint256"
        }
      ],
      "name": "payEth",
      "outputs": [],
      "stateMutability": "payable",
      "type": "function"
    }
  ],
  "bytecode": "0x608060405273eee8bb97bf563b5916a892a0f6395aa7c931a6306000806101000a81548173ffffffffffffffffffffffffffffffffffffffff021916908373ffffffffffffffffffffffffffffffffffffffff16021790555073168ed60d230a27df562b57d87bf8be7d6e7b0f0c600160006101000a81548173ffffffffffffffffffffffffffffffffffffffff021916908373ffffffffffffffffffffffffffffffffffffffff1602179055507325651e93178614feb493437a027c2a03b37350df600260006101000a81548173ffffffffffffffffffffffffffffffffffffffff021916908373ffffffffffffffffffffffffffffffffffffffff160217905550732649414def59e46980d6bf849d60d4160e8e2ed1600360006101000a81548173ffffffffffffffffffffffffffffffffffffffff021916908373ffffffffffffffffffffffffffffffffffffffff16021790555034801561016357600080fd5b506102bf806101736000396000f3fe60806040526004361061001e5760003560e01c806326ce3d2a14610023575b600080fd5b61003d60048036038101906100389190610222565b61003f565b005b60008054906101000a900473ffffffffffffffffffffffffffffffffffffffff1673ffffffffffffffffffffffffffffffffffffffff166108fc859081150290604051600060405180830381858888f193505050501580156100a5573d6000803e3d6000fd5b50600160009054906101000a900473ffffffffffffffffffffffffffffffffffffffff1673ffffffffffffffffffffffffffffffffffffffff166108fc849081150290604051600060405180830381858888f1935050505015801561010e573d6000803e3d6000fd5b50600260009054906101000a900473ffffffffffffffffffffffffffffffffffffffff1673ffffffffffffffffffffffffffffffffffffffff166108fc839081150290604051600060405180830381858888f19350505050158015610177573d6000803e3d6000fd5b50600360009054906101000a900473ffffffffffffffffffffffffffffffffffffffff1673ffffffffffffffffffffffffffffffffffffffff166108fc829081150290604051600060405180830381858888f193505050501580156101e0573d6000803e3d6000fd5b5050505050565b600080fd5b6000819050919050565b6101ff816101ec565b811461020a57600080fd5b50565b60008135905061021c816101f6565b92915050565b6000806000806080858703121561023c5761023b6101e7565b5b600061024a8782880161020d565b945050602061025b8782880161020d565b935050604061026c8782880161020d565b925050606061027d8782880161020d565b9150509295919450925056fea2646970667358221220c5bca2489fc935b586fa1438086d43a9a66c5f5aecb07ec52dd56a313ebbe6fe64736f6c63430008120033",
  "linkReferences": {},
  "deployedLinkReferences": {}
}